{
  "contractName": "Consumer",
  "abi": [
    {
      "inputs": [
        {
          "internalType": "address",
          "name": "_oracle",
          "type": "address"
        }
      ],
      "stateMutability": "nonpayable",
      "type": "constructor"
    },
    {
      "inputs": [],
      "name": "oracle",
      "outputs": [
        {
          "internalType": "contract IOracle",
          "name": "",
          "type": "address"
        }
      ],
      "stateMutability": "view",
      "type": "function"
    },
    {
      "inputs": [],
      "name": "priceReturn",
      "outputs": [],
      "stateMutability": "view",
      "type": "function"
    }
  ],
  "bytecode": "0x608060405234801561001057600080fd5b5060405161037b38038061037b8339818101604052602081101561003357600080fd5b8101908080519060200190929190505050806000806101000a81548173ffffffffffffffffffffffffffffffffffffffff021916908373ffffffffffffffffffffffffffffffffffffffff160217905550506102e7806100946000396000f3fe608060405234801561001057600080fd5b50600436106100365760003560e01c80631c6dc0ce1461003b5780637dc0d1d014610045575b600080fd5b610043610079565b005b61004d61026c565b604051808273ffffffffffffffffffffffffffffffffffffffff16815260200191505060405180910390f35b600060405160200180807f4254432f55534400000000000000000000000000000000000000000000000000815250600701905060405160208183030381529060405280519060200120905060008060008060009054906101000a900473ffffffffffffffffffffffffffffffffffffffff1673ffffffffffffffffffffffffffffffffffffffff166354f6127f856040518263ffffffff1660e01b81526004018082815260200191505060606040518083038186803b15801561013b57600080fd5b505afa15801561014f573d6000803e3d6000fd5b505050506040513d606081101561016557600080fd5b8101908080519060200190929190805190602001909291908051906020019092919050505092509250925060011515831515146101ed576040517f08c379a00000000000000000000000000000000000000000000000000000000081526004018080602001828103825260218152602001806102916021913960400191505060405180910390fd5b60034203821015610266576040517f08c379a00000000000000000000000000000000000000000000000000000000081526004018080602001828103825260198152602001807f44617461206973206e6f206c6f6e6765722063757272656e740000000000000081525060200191505060405180910390fd5b50505050565b60008054906101000a900473ffffffffffffffffffffffffffffffffffffffff168156fe4e6f20726573756c7420666f756e6420666f7220737065636966696564206b6579a264697066735822122087321ed19f5c80b0e6a181c93f63ebad5977c77df2aa5dd2f17af65ba9d9a23464736f6c63430007030033",
  "immutableReferences": {},
  "source": "// SPDX-License-Identifier: MIT\npragma solidity >=0.4.22 <0.9.0;\n\nimport './IOracle.sol';\n\ncontract Consumer {\n\n    IOracle public oracle;\n\n    constructor(address _oracle) {\n        oracle = IOracle(_oracle);\n    }\n\n    //Function that requires Oracle\n\n    function priceReturn() external view {\n        bytes32 index = keccak256(abi.encodePacked('BTC/USD'));\n        (bool result, uint timestamp, uint data) = oracle.getData(index);\n        require(result == true, \"No result found for specified key\");\n        require(timestamp >= block.timestamp - 3, \"Data is no longer current\");\n    }\n   \n}",
  "sourcePath": "/Users/Benjamin.Scherr/Documents/Personal/Training/ethereumOracle/contracts/Consumer.sol",
  "compiler": {
    "name": "solc",
    "version": "0.7.3+commit.9bfce1f6.Emscripten.clang"
  },
  "schemaVersion": "3.4.0",
  "updatedAt": "2022-03-21T18:47:31.930Z",
  "networkType": "ethereum",
  "devdoc": {
    "kind": "dev",
    "methods": {},
    "version": 1
  },
  "userdoc": {
    "kind": "user",
    "methods": {},
    "version": 1
  }
}