{
  "contractName": "Oracle",
  "abi": [
    {
      "inputs": [
        {
          "internalType": "address",
          "name": "_admin",
          "type": "address"
        }
      ],
      "stateMutability": "nonpayable",
      "type": "constructor"
    },
    {
      "inputs": [],
      "name": "admin",
      "outputs": [
        {
          "internalType": "address",
          "name": "",
          "type": "address"
        }
      ],
      "stateMutability": "view",
      "type": "function"
    },
    {
      "inputs": [
        {
          "internalType": "bytes32",
          "name": "",
          "type": "bytes32"
        }
      ],
      "name": "data",
      "outputs": [
        {
          "internalType": "uint256",
          "name": "date",
          "type": "uint256"
        },
        {
          "internalType": "uint256",
          "name": "payload",
          "type": "uint256"
        }
      ],
      "stateMutability": "view",
      "type": "function"
    },
    {
      "inputs": [
        {
          "internalType": "address",
          "name": "_reporter",
          "type": "address"
        },
        {
          "internalType": "bool",
          "name": "_status",
          "type": "bool"
        }
      ],
      "name": "updateReporter",
      "outputs": [],
      "stateMutability": "nonpayable",
      "type": "function"
    },
    {
      "inputs": [
        {
          "internalType": "bytes32",
          "name": "index",
          "type": "bytes32"
        },
        {
          "internalType": "uint256",
          "name": "payload",
          "type": "uint256"
        }
      ],
      "name": "updateData",
      "outputs": [],
      "stateMutability": "nonpayable",
      "type": "function"
    },
    {
      "inputs": [
        {
          "internalType": "bytes32",
          "name": "index",
          "type": "bytes32"
        }
      ],
      "name": "getData",
      "outputs": [
        {
          "internalType": "bool",
          "name": "result",
          "type": "bool"
        },
        {
          "internalType": "uint256",
          "name": "date",
          "type": "uint256"
        },
        {
          "internalType": "uint256",
          "name": "payload",
          "type": "uint256"
        }
      ],
      "stateMutability": "view",
      "type": "function"
    }
  ],
  "bytecode": "0x608060405234801561001057600080fd5b506040516105673803806105678339818101604052602081101561003357600080fd5b8101908080519060200190929190505050806000806101000a81548173ffffffffffffffffffffffffffffffffffffffff021916908373ffffffffffffffffffffffffffffffffffffffff160217905550506104d3806100946000396000f3fe608060405234801561001057600080fd5b50600436106100575760003560e01c80630147fb0c1461005c5780631ec6e24f146100a557806354f6127f146100f5578063a8200ab714610147578063f851a4401461017f575b600080fd5b6100886004803603602081101561007257600080fd5b81019080803590602001909291905050506101b3565b604051808381526020018281526020019250505060405180910390f35b6100f3600480360360408110156100bb57600080fd5b81019080803573ffffffffffffffffffffffffffffffffffffffff1690602001909291908035151590602001909291905050506101d7565b005b6101216004803603602081101561010b57600080fd5b81019080803590602001909291905050506102f3565b604051808415158152602001838152602001828152602001935050505060405180910390f35b61017d6004803603604081101561015d57600080fd5b810190808035906020019092919080359060200190929190505050610364565b005b610187610450565b604051808273ffffffffffffffffffffffffffffffffffffffff16815260200191505060405180910390f35b60026020528060005260406000206000915090508060000154908060010154905082565b60008054906101000a900473ffffffffffffffffffffffffffffffffffffffff1673ffffffffffffffffffffffffffffffffffffffff163373ffffffffffffffffffffffffffffffffffffffff1614610298576040517f08c379a00000000000000000000000000000000000000000000000000000000081526004018080602001828103825260158152602001807f596f75206d757374206265207468652061646d696e000000000000000000000081525060200191505060405180910390fd5b80600160008473ffffffffffffffffffffffffffffffffffffffff1673ffffffffffffffffffffffffffffffffffffffff16815260200190815260200160002060006101000a81548160ff0219169083151502179055505050565b6000806000806002600086815260200190815260200160002060010154141561032657600080600092509250925061035d565b6001600260008681526020019081526020016000206000015460026000878152602001908152602001600020600101549250925092505b9193909250565b60011515600160003373ffffffffffffffffffffffffffffffffffffffff1673ffffffffffffffffffffffffffffffffffffffff16815260200190815260200160002060009054906101000a900460ff1615151461040d576040517f08c379a00000000000000000000000000000000000000000000000000000000081526004018080602001828103825260298152602001806104756029913960400191505060405180910390fd5b6040518060400160405280428152602001828152506002600084815260200190815260200160002060008201518160000155602082015181600101559050505050565b60008054906101000a900473ffffffffffffffffffffffffffffffffffffffff168156fe4f6e6c792072656769737465726564207265706f72746572732063616e207375626d69742064617461a264697066735822122064003ef030c3c0cf2c2a775332542f67c8e7e7f751931760b9a601264ba3679a64736f6c63430007030033",
  "immutableReferences": {},
  "source": "// SPDX-License-Identifier: MIT\npragma solidity >=0.4.22 <0.9.0;\n\ncontract Oracle {\n\n    struct Data {\n        uint date;\n        uint payload;\n    }\n\n    address public admin;\n    mapping (address => bool) reporters;\n    mapping (bytes32 => Data) public data;\n\n    constructor (address _admin) {\n        admin = _admin;\n    }\n\n    function updateReporter(address _reporter, bool _status) external {\n        require(msg.sender == admin, 'You must be the admin');\n        reporters[_reporter] = _status;\n    }\n\n    function updateData(bytes32 index, uint payload) external {\n        require(reporters[msg.sender] == true, 'Only registered reporters can submit data');\n        data[index] = Data(block.timestamp, payload);\n    }\n\n    function getData(bytes32 index) external view returns (bool result, uint date, uint payload) {\n        if (data[index].payload == 0) {\n            return (false, 0, 0);\n        } else {\n            return (true, data[index].date, data[index].payload);\n        }\n    }\n}",
  "sourcePath": "/Users/Benjamin.Scherr/Documents/Personal/Training/ethereumOracle/contracts/Oracle.sol",
  "compiler": {
    "name": "solc",
    "version": "0.7.3+commit.9bfce1f6.Emscripten.clang"
  },
  "schemaVersion": "3.4.0",
  "updatedAt": "2022-03-20T22:53:35.554Z",
  "devdoc": {
    "kind": "dev",
    "methods": {},
    "version": 1
  },
  "userdoc": {
    "kind": "user",
    "methods": {},
    "version": 1
  }
}